{
  "contractName": "StoreFactory",
  "abi": [
    {
      "constant": true,
      "inputs": [
        {
          "name": "_salt",
          "type": "uint256"
        },
        {
          "name": "_logic",
          "type": "address"
        },
        {
          "name": "_admin",
          "type": "address"
        },
        {
          "name": "_data",
          "type": "bytes"
        },
        {
          "name": "_signature",
          "type": "bytes"
        }
      ],
      "name": "getSigner",
      "outputs": [
        {
          "name": "",
          "type": "address"
        }
      ],
      "payable": false,
      "stateMutability": "view",
      "type": "function"
    },
    {
      "constant": false,
      "inputs": [
        {
          "name": "_salt",
          "type": "uint256"
        },
        {
          "name": "_logic",
          "type": "address"
        },
        {
          "name": "_admin",
          "type": "address"
        },
        {
          "name": "_data",
          "type": "bytes"
        },
        {
          "name": "_signature",
          "type": "bytes"
        }
      ],
      "name": "deploySigned",
      "outputs": [
        {
          "name": "",
          "type": "address"
        }
      ],
      "payable": false,
      "stateMutability": "nonpayable",
      "type": "function"
    },
    {
      "constant": true,
      "inputs": [],
      "name": "implementation",
      "outputs": [
        {
          "name": "",
          "type": "address"
        }
      ],
      "payable": false,
      "stateMutability": "view",
      "type": "function"
    },
    {
      "constant": false,
      "inputs": [
        {
          "name": "_salt",
          "type": "uint256"
        },
        {
          "name": "_logic",
          "type": "address"
        },
        {
          "name": "_admin",
          "type": "address"
        },
        {
          "name": "_data",
          "type": "bytes"
        }
      ],
      "name": "deploy",
      "outputs": [
        {
          "name": "",
          "type": "address"
        }
      ],
      "payable": false,
      "stateMutability": "nonpayable",
      "type": "function"
    },
    {
      "constant": true,
      "inputs": [
        {
          "name": "_salt",
          "type": "uint256"
        },
        {
          "name": "_sender",
          "type": "address"
        }
      ],
      "name": "getDeploymentAddress",
      "outputs": [
        {
          "name": "",
          "type": "address"
        }
      ],
      "payable": false,
      "stateMutability": "view",
      "type": "function"
    },
    {
      "constant": true,
      "inputs": [],
      "name": "owner",
      "outputs": [
        {
          "name": "",
          "type": "address"
        }
      ],
      "payable": false,
      "stateMutability": "view",
      "type": "function"
    },
    {
      "constant": false,
      "inputs": [
        {
          "name": "_logic",
          "type": "address"
        },
        {
          "name": "_data",
          "type": "bytes"
        }
      ],
      "name": "deployMinimal",
      "outputs": [
        {
          "name": "proxy",
          "type": "address"
        }
      ],
      "payable": false,
      "stateMutability": "nonpayable",
      "type": "function"
    },
    {
      "inputs": [
        {
          "name": "_implementation",
          "type": "address"
        }
      ],
      "payable": false,
      "stateMutability": "nonpayable",
      "type": "constructor"
    },
    {
      "anonymous": false,
      "inputs": [
        {
          "indexed": false,
          "name": "proxy",
          "type": "address"
        }
      ],
      "name": "ProxyCreated",
      "type": "event"
    },
    {
      "constant": false,
      "inputs": [],
      "name": "cloneStore",
      "outputs": [],
      "payable": false,
      "stateMutability": "nonpayable",
      "type": "function"
    }
  ],
  "bytecode": "0x608060405234801561001057600080fd5b50604051602080612e2e8339810180604052602081101561003057600080fd5b810190808051906020019092919050505060405180602001610051906100f3565b602082018103825280604052508051906020012060008190555080600160006101000a81548173ffffffffffffffffffffffffffffffffffffffff021916908373ffffffffffffffffffffffffffffffffffffffff16021790555033600260006101000a81548173ffffffffffffffffffffffffffffffffffffffff021916908373ffffffffffffffffffffffffffffffffffffffff16021790555050610100565b610d4c806120e283390190565b611fd38061010f6000396000f3fe608060405234801561001057600080fd5b50600436106100a5576000357c0100000000000000000000000000000000000000000000000000000000900480637bd643f7116100785780637bd643f7146105f157806381ae1f5b146105fb5780638da5cb5b14610689578063b3eeb5e2146106d3576100a5565b8063290f8f56146100aa578063332d6626146102865780635c60da1b146104625780636150864c146104ac575b600080fd5b610244600480360360a08110156100c057600080fd5b8101908080359060200190929190803573ffffffffffffffffffffffffffffffffffffffff169060200190929190803573ffffffffffffffffffffffffffffffffffffffff1690602001909291908035906020019064010000000081111561012757600080fd5b82018360208201111561013957600080fd5b8035906020019184600183028401116401000000008311171561015b57600080fd5b91908080601f016020809104026020016040519081016040528093929190818152602001838380828437600081840152601f19601f820116905080830192505050505050509192919290803590602001906401000000008111156101be57600080fd5b8201836020820111156101d057600080fd5b803590602001918460018302840111640100000000831117156101f257600080fd5b91908080601f016020809104026020016040519081016040528093929190818152602001838380828437600081840152601f19601f8201169050808301925050505050505091929192905050506107ee565b604051808273ffffffffffffffffffffffffffffffffffffffff1673ffffffffffffffffffffffffffffffffffffffff16815260200191505060405180910390f35b610420600480360360a081101561029c57600080fd5b8101908080359060200190929190803573ffffffffffffffffffffffffffffffffffffffff169060200190929190803573ffffffffffffffffffffffffffffffffffffffff1690602001909291908035906020019064010000000081111561030357600080fd5b82018360208201111561031557600080fd5b8035906020019184600183028401116401000000008311171561033757600080fd5b91908080601f016020809104026020016040519081016040528093929190818152602001838380828437600081840152601f19601f8201169050808301925050505050505091929192908035906020019064010000000081111561039a57600080fd5b8201836020820111156103ac57600080fd5b803590602001918460018302840111640100000000831117156103ce57600080fd5b91908080601f016020809104026020016040519081016040528093929190818152602001838380828437600081840152601f19601f820116905080830192505050505050509192919290505050610956565b604051808273ffffffffffffffffffffffffffffffffffffffff1673ffffffffffffffffffffffffffffffffffffffff16815260200191505060405180910390f35b61046a610a26565b604051808273ffffffffffffffffffffffffffffffffffffffff1673ffffffffffffffffffffffffffffffffffffffff16815260200191505060405180910390f35b6105af600480360360808110156104c257600080fd5b8101908080359060200190929190803573ffffffffffffffffffffffffffffffffffffffff169060200190929190803573ffffffffffffffffffffffffffffffffffffffff1690602001909291908035906020019064010000000081111561052957600080fd5b82018360208201111561053b57600080fd5b8035906020019184600183028401116401000000008311171561055d57600080fd5b91908080601f016020809104026020016040519081016040528093929190818152602001838380828437600081840152601f19601f820116905080830192505050505050509192919290505050610a4c565b604051808273ffffffffffffffffffffffffffffffffffffffff1673ffffffffffffffffffffffffffffffffffffffff16815260200191505060405180910390f35b6105f9610a65565b005b6106476004803603604081101561061157600080fd5b8101908080359060200190929190803573ffffffffffffffffffffffffffffffffffffffff169060200190929190505050610b69565b604051808273ffffffffffffffffffffffffffffffffffffffff1673ffffffffffffffffffffffffffffffffffffffff16815260200191505060405180910390f35b610691610c81565b604051808273ffffffffffffffffffffffffffffffffffffffff1673ffffffffffffffffffffffffffffffffffffffff16815260200191505060405180910390f35b6107ac600480360360408110156106e957600080fd5b81019080803573ffffffffffffffffffffffffffffffffffffffff1690602001909291908035906020019064010000000081111561072657600080fd5b82018360208201111561073857600080fd5b8035906020019184600183028401116401000000008311171561075a57600080fd5b91908080601f016020809104026020016040519081016040528093929190818152602001838380828437600081840152601f19601f820116905080830192505050505050509192919290505050610ca7565b604051808273ffffffffffffffffffffffffffffffffffffffff1673ffffffffffffffffffffffffffffffffffffffff16815260200191505060405180910390f35b60008061093e8787878730604051602001808681526020018573ffffffffffffffffffffffffffffffffffffffff1673ffffffffffffffffffffffffffffffffffffffff166c010000000000000000000000000281526014018473ffffffffffffffffffffffffffffffffffffffff1673ffffffffffffffffffffffffffffffffffffffff166c0100000000000000000000000002815260140183805190602001908083835b6020831015156108b95780518252602082019150602081019050602083039250610894565b6001836020036101000a0380198251168184511680821785525050505050509050018273ffffffffffffffffffffffffffffffffffffffff1673ffffffffffffffffffffffffffffffffffffffff166c010000000000000000000000000281526014019550505050505060405160208183030381529060405280519060200120610e52565b905061094a8184610eaa565b91505095945050505050565b60008061096687878787876107ee565b9050600073ffffffffffffffffffffffffffffffffffffffff168173ffffffffffffffffffffffffffffffffffffffff1614151515610a0d576040517f08c379a00000000000000000000000000000000000000000000000000000000081526004018080602001828103825260118152602001807f496e76616c6964207369676e617475726500000000000000000000000000000081525060200191505060405180910390fd5b610a1a8787878785610fb1565b91505095945050505050565b600160009054906101000a900473ffffffffffffffffffffffffffffffffffffffff1681565b6000610a5b8585858533610fb1565b9050949350505050565b600260009054906101000a900473ffffffffffffffffffffffffffffffffffffffff1673ffffffffffffffffffffffffffffffffffffffff163373ffffffffffffffffffffffffffffffffffffffff16141515610b2a576040517f08c379a00000000000000000000000000000000000000000000000000000000081526004018080602001828103825260098152602001807f4e6f74206f776e6572000000000000000000000000000000000000000000000081525060200191505060405180910390fd5b610b66600160009054906101000a900473ffffffffffffffffffffffffffffffffffffffff166020604051908101604052806000815250610ca7565b50565b600080610b768484611183565b9050600060ff7f010000000000000000000000000000000000000000000000000000000000000002308360005460405160200180857effffffffffffffffffffffffffffffffffffffffffffffffffffffffffffff19167effffffffffffffffffffffffffffffffffffffffffffffffffffffffffffff191681526001018473ffffffffffffffffffffffffffffffffffffffff1673ffffffffffffffffffffffffffffffffffffffff166c010000000000000000000000000281526014018381526020018281526020019450505050506040516020818303038152906040528051906020012090506060819060020a026c0100000000000000000000000090049250505092915050565b600260009054906101000a900473ffffffffffffffffffffffffffffffffffffffff1681565b600080836c010000000000000000000000000290506040517f3d602d80600a3d3981f3363d3d373d3d3d363d7300000000000000000000000081528160148201527f5af43d82803e903d91602b57fd5bf3000000000000000000000000000000000060288201526037816000f09250507efffc2da0b561cae30d9826d37709e9421c4725faebc226cbbb7ef5fc5e734982604051808273ffffffffffffffffffffffffffffffffffffffff1673ffffffffffffffffffffffffffffffffffffffff16815260200191505060405180910390a1600083511115610e4b5760008273ffffffffffffffffffffffffffffffffffffffff16846040518082805190602001908083835b602083101515610dd25780518252602082019150602081019050602083039250610dad565b6001836020036101000a0380198251168184511680821785525050505050509050019150506000604051808303816000865af19150503d8060008114610e34576040519150601f19603f3d011682016040523d82523d6000602084013e610e39565b606091505b50509050801515610e4957600080fd5b505b5092915050565b60008160405160200180807f19457468657265756d205369676e6564204d6573736167653a0a333200000000815250601c01828152602001915050604051602081830303815290604052805190602001209050919050565b600060418251141515610ec05760009050610fab565b60008060006020850151925060408501519150606085015160001a90507f7fffffffffffffffffffffffffffffff5d576e7357a4501ddfe92f46681b20a082600190041115610f155760009350505050610fab565b601b8160ff1614158015610f2d5750601c8160ff1614155b15610f3e5760009350505050610fab565b60018682858560405160008152602001604052604051808581526020018460ff1660ff1681526020018381526020018281526020019450505050506020604051602081039080840390855afa158015610f9b573d6000803e3d6000fd5b5050506020604051035193505050505b92915050565b600080610fbe87846111f7565b90507efffc2da0b561cae30d9826d37709e9421c4725faebc226cbbb7ef5fc5e734981604051808273ffffffffffffffffffffffffffffffffffffffff1673ffffffffffffffffffffffffffffffffffffffff16815260200191505060405180910390a18073ffffffffffffffffffffffffffffffffffffffff1663cf7a1d778787876040518463ffffffff167c0100000000000000000000000000000000000000000000000000000000028152600401808473ffffffffffffffffffffffffffffffffffffffff1673ffffffffffffffffffffffffffffffffffffffff1681526020018373ffffffffffffffffffffffffffffffffffffffff1673ffffffffffffffffffffffffffffffffffffffff16815260200180602001828103825283818151815260200191508051906020019080838360005b838110156111105780820151818401526020810190506110f5565b50505050905090810190601f16801561113d5780820380516001836020036101000a031916815260200191505b50945050505050600060405180830381600087803b15801561115e57600080fd5b505af1158015611172573d6000803e3d6000fd5b505050508091505095945050505050565b60008282604051602001808381526020018273ffffffffffffffffffffffffffffffffffffffff1673ffffffffffffffffffffffffffffffffffffffff166c010000000000000000000000000281526014019250505060405160208183030381529060405280519060200120905092915050565b60008060606040518060200161120c9061124e565b60208201810382528060405250905060006112278686611183565b9050808251602084016000f59250823b151561124257600080fd5b82935050505092915050565b610d4c8061125c8339019056fe608060405234801561001057600080fd5b50610d2c806100206000396000f3fe60806040526004361061008d576000357c0100000000000000000000000000000000000000000000000000000000900480638f2839701161006b5780638f283970146101d8578063cf7a1d7714610229578063d1f5789414610324578063f851a440146103ff5761008d565b80633659cfe6146100975780634f1ef286146100e85780635c60da1b14610181575b610095610456565b005b3480156100a357600080fd5b506100e6600480360360208110156100ba57600080fd5b81019080803573ffffffffffffffffffffffffffffffffffffffff169060200190929190505050610470565b005b61017f600480360360408110156100fe57600080fd5b81019080803573ffffffffffffffffffffffffffffffffffffffff1690602001909291908035906020019064010000000081111561013b57600080fd5b82018360208201111561014d57600080fd5b8035906020019184600183028401116401000000008311171561016f57600080fd5b90919293919293905050506104c5565b005b34801561018d57600080fd5b5061019661059d565b604051808273ffffffffffffffffffffffffffffffffffffffff1673ffffffffffffffffffffffffffffffffffffffff16815260200191505060405180910390f35b3480156101e457600080fd5b50610227600480360360208110156101fb57600080fd5b81019080803573ffffffffffffffffffffffffffffffffffffffff1690602001909291905050506105f5565b005b6103226004803603606081101561023f57600080fd5b81019080803573ffffffffffffffffffffffffffffffffffffffff169060200190929190803573ffffffffffffffffffffffffffffffffffffffff1690602001909291908035906020019064010000000081111561029c57600080fd5b8201836020820111156102ae57600080fd5b803590602001918460018302840111640100000000831117156102d057600080fd5b91908080601f016020809104026020016040519081016040528093929190818152602001838380828437600081840152601f19601f820116905080830192505050505050509192919290505050610770565b005b6103fd6004803603604081101561033a57600080fd5b81019080803573ffffffffffffffffffffffffffffffffffffffff1690602001909291908035906020019064010000000081111561037757600080fd5b82018360208201111561038957600080fd5b803590602001918460018302840111640100000000831117156103ab57600080fd5b91908080601f016020809104026020016040519081016040528093929190818152602001838380828437600081840152601f19601f820116905080830192505050505050509192919290505050610837565b005b34801561040b57600080fd5b506104146109c3565b604051808273ffffffffffffffffffffffffffffffffffffffff1673ffffffffffffffffffffffffffffffffffffffff16815260200191505060405180910390f35b61045e610a1b565b61046e610469610ab3565b610ae4565b565b610478610b0a565b73ffffffffffffffffffffffffffffffffffffffff163373ffffffffffffffffffffffffffffffffffffffff1614156104b9576104b481610b3b565b6104c2565b6104c1610456565b5b50565b6104cd610b0a565b73ffffffffffffffffffffffffffffffffffffffff163373ffffffffffffffffffffffffffffffffffffffff16141561058f5761050983610b3b565b60008373ffffffffffffffffffffffffffffffffffffffff168383604051808383808284378083019250505092505050600060405180830381855af49150503d8060008114610574576040519150601f19603f3d011682016040523d82523d6000602084013e610579565b606091505b5050905080151561058957600080fd5b50610598565b610597610456565b5b505050565b60006105a7610b0a565b73ffffffffffffffffffffffffffffffffffffffff163373ffffffffffffffffffffffffffffffffffffffff1614156105e9576105e2610ab3565b90506105f2565b6105f1610456565b5b90565b6105fd610b0a565b73ffffffffffffffffffffffffffffffffffffffff163373ffffffffffffffffffffffffffffffffffffffff16141561076457600073ffffffffffffffffffffffffffffffffffffffff168173ffffffffffffffffffffffffffffffffffffffff16141515156106b8576040517f08c379a0000000000000000000000000000000000000000000000000000000008152600401808060200182810382526036815260200180610c906036913960400191505060405180910390fd5b7f7e644d79422f17c01e4894b5f4f588d331ebfa28653d42ae832dc59e38c9798f6106e1610b0a565b82604051808373ffffffffffffffffffffffffffffffffffffffff1673ffffffffffffffffffffffffffffffffffffffff1681526020018273ffffffffffffffffffffffffffffffffffffffff1673ffffffffffffffffffffffffffffffffffffffff1681526020019250505060405180910390a161075f81610b8a565b61076d565b61076c610456565b5b50565b600073ffffffffffffffffffffffffffffffffffffffff16610790610ab3565b73ffffffffffffffffffffffffffffffffffffffff161415156107b257600080fd5b6107bc8382610837565b600160405180807f656970313936372e70726f78792e61646d696e000000000000000000000000008152506013019050604051809103902060019004036001027fb53127684a568b3173ae13b9f8a6016e243e63b6e8ee1178d6a717850b5d610360010214151561082957fe5b61083282610b8a565b505050565b600073ffffffffffffffffffffffffffffffffffffffff16610857610ab3565b73ffffffffffffffffffffffffffffffffffffffff1614151561087957600080fd5b600160405180807f656970313936372e70726f78792e696d706c656d656e746174696f6e00000000815250601c019050604051809103902060019004036001027f360894a13ba1a3210667c828492db98dca3e2076cc3735a920a3ca505d382bbc6001021415156108e657fe5b6108ef82610bb9565b6000815111156109bf5760008273ffffffffffffffffffffffffffffffffffffffff16826040518082805190602001908083835b6020831015156109485780518252602082019150602081019050602083039250610923565b6001836020036101000a038019825116818451168082178552505050505050905001915050600060405180830381855af49150503d80600081146109a8576040519150601f19603f3d011682016040523d82523d6000602084013e6109ad565b606091505b505090508015156109bd57600080fd5b505b5050565b60006109cd610b0a565b73ffffffffffffffffffffffffffffffffffffffff163373ffffffffffffffffffffffffffffffffffffffff161415610a0f57610a08610b0a565b9050610a18565b610a17610456565b5b90565b610a23610b0a565b73ffffffffffffffffffffffffffffffffffffffff163373ffffffffffffffffffffffffffffffffffffffff1614151515610aa9576040517f08c379a0000000000000000000000000000000000000000000000000000000008152600401808060200182810382526032815260200180610c5e6032913960400191505060405180910390fd5b610ab1610c48565b565b6000807f360894a13ba1a3210667c828492db98dca3e2076cc3735a920a3ca505d382bbc6001029050805491505090565b3660008037600080366000845af43d6000803e8060008114610b05573d6000f35b3d6000fd5b6000807fb53127684a568b3173ae13b9f8a6016e243e63b6e8ee1178d6a717850b5d61036001029050805491505090565b610b4481610bb9565b8073ffffffffffffffffffffffffffffffffffffffff167fbc7cd75a20ee27fd9adebab32041f755214dbc6bffa90cc0225b39da2e5c2d3b60405160405180910390a250565b60007fb53127684a568b3173ae13b9f8a6016e243e63b6e8ee1178d6a717850b5d610360010290508181555050565b610bc281610c4a565b1515610c19576040517f08c379a000000000000000000000000000000000000000000000000000000000815260040180806020018281038252603b815260200180610cc6603b913960400191505060405180910390fd5b60007f360894a13ba1a3210667c828492db98dca3e2076cc3735a920a3ca505d382bbc60010290508181555050565b565b600080823b90506000811191505091905056fe43616e6e6f742063616c6c2066616c6c6261636b2066756e6374696f6e2066726f6d207468652070726f78792061646d696e43616e6e6f74206368616e6765207468652061646d696e206f6620612070726f787920746f20746865207a65726f206164647265737343616e6e6f742073657420612070726f787920696d706c656d656e746174696f6e20746f2061206e6f6e2d636f6e74726163742061646472657373a165627a7a72305820e0f9f0a77ed9208d8df512952448f28d6285c575a30a5b572b6488e8c0fd51880029a165627a7a72305820bfae2263a6496091385c56cad723eb327166d5df0ac860ff13abe18381cd92b70029608060405234801561001057600080fd5b50610d2c806100206000396000f3fe60806040526004361061008d576000357c0100000000000000000000000000000000000000000000000000000000900480638f2839701161006b5780638f283970146101d8578063cf7a1d7714610229578063d1f5789414610324578063f851a440146103ff5761008d565b80633659cfe6146100975780634f1ef286146100e85780635c60da1b14610181575b610095610456565b005b3480156100a357600080fd5b506100e6600480360360208110156100ba57600080fd5b81019080803573ffffffffffffffffffffffffffffffffffffffff169060200190929190505050610470565b005b61017f600480360360408110156100fe57600080fd5b81019080803573ffffffffffffffffffffffffffffffffffffffff1690602001909291908035906020019064010000000081111561013b57600080fd5b82018360208201111561014d57600080fd5b8035906020019184600183028401116401000000008311171561016f57600080fd5b90919293919293905050506104c5565b005b34801561018d57600080fd5b5061019661059d565b604051808273ffffffffffffffffffffffffffffffffffffffff1673ffffffffffffffffffffffffffffffffffffffff16815260200191505060405180910390f35b3480156101e457600080fd5b50610227600480360360208110156101fb57600080fd5b81019080803573ffffffffffffffffffffffffffffffffffffffff1690602001909291905050506105f5565b005b6103226004803603606081101561023f57600080fd5b81019080803573ffffffffffffffffffffffffffffffffffffffff169060200190929190803573ffffffffffffffffffffffffffffffffffffffff1690602001909291908035906020019064010000000081111561029c57600080fd5b8201836020820111156102ae57600080fd5b803590602001918460018302840111640100000000831117156102d057600080fd5b91908080601f016020809104026020016040519081016040528093929190818152602001838380828437600081840152601f19601f820116905080830192505050505050509192919290505050610770565b005b6103fd6004803603604081101561033a57600080fd5b81019080803573ffffffffffffffffffffffffffffffffffffffff1690602001909291908035906020019064010000000081111561037757600080fd5b82018360208201111561038957600080fd5b803590602001918460018302840111640100000000831117156103ab57600080fd5b91908080601f016020809104026020016040519081016040528093929190818152602001838380828437600081840152601f19601f820116905080830192505050505050509192919290505050610837565b005b34801561040b57600080fd5b506104146109c3565b604051808273ffffffffffffffffffffffffffffffffffffffff1673ffffffffffffffffffffffffffffffffffffffff16815260200191505060405180910390f35b61045e610a1b565b61046e610469610ab3565b610ae4565b565b610478610b0a565b73ffffffffffffffffffffffffffffffffffffffff163373ffffffffffffffffffffffffffffffffffffffff1614156104b9576104b481610b3b565b6104c2565b6104c1610456565b5b50565b6104cd610b0a565b73ffffffffffffffffffffffffffffffffffffffff163373ffffffffffffffffffffffffffffffffffffffff16141561058f5761050983610b3b565b60008373ffffffffffffffffffffffffffffffffffffffff168383604051808383808284378083019250505092505050600060405180830381855af49150503d8060008114610574576040519150601f19603f3d011682016040523d82523d6000602084013e610579565b606091505b5050905080151561058957600080fd5b50610598565b610597610456565b5b505050565b60006105a7610b0a565b73ffffffffffffffffffffffffffffffffffffffff163373ffffffffffffffffffffffffffffffffffffffff1614156105e9576105e2610ab3565b90506105f2565b6105f1610456565b5b90565b6105fd610b0a565b73ffffffffffffffffffffffffffffffffffffffff163373ffffffffffffffffffffffffffffffffffffffff16141561076457600073ffffffffffffffffffffffffffffffffffffffff168173ffffffffffffffffffffffffffffffffffffffff16141515156106b8576040517f08c379a0000000000000000000000000000000000000000000000000000000008152600401808060200182810382526036815260200180610c906036913960400191505060405180910390fd5b7f7e644d79422f17c01e4894b5f4f588d331ebfa28653d42ae832dc59e38c9798f6106e1610b0a565b82604051808373ffffffffffffffffffffffffffffffffffffffff1673ffffffffffffffffffffffffffffffffffffffff1681526020018273ffffffffffffffffffffffffffffffffffffffff1673ffffffffffffffffffffffffffffffffffffffff1681526020019250505060405180910390a161075f81610b8a565b61076d565b61076c610456565b5b50565b600073ffffffffffffffffffffffffffffffffffffffff16610790610ab3565b73ffffffffffffffffffffffffffffffffffffffff161415156107b257600080fd5b6107bc8382610837565b600160405180807f656970313936372e70726f78792e61646d696e000000000000000000000000008152506013019050604051809103902060019004036001027fb53127684a568b3173ae13b9f8a6016e243e63b6e8ee1178d6a717850b5d610360010214151561082957fe5b61083282610b8a565b505050565b600073ffffffffffffffffffffffffffffffffffffffff16610857610ab3565b73ffffffffffffffffffffffffffffffffffffffff1614151561087957600080fd5b600160405180807f656970313936372e70726f78792e696d706c656d656e746174696f6e00000000815250601c019050604051809103902060019004036001027f360894a13ba1a3210667c828492db98dca3e2076cc3735a920a3ca505d382bbc6001021415156108e657fe5b6108ef82610bb9565b6000815111156109bf5760008273ffffffffffffffffffffffffffffffffffffffff16826040518082805190602001908083835b6020831015156109485780518252602082019150602081019050602083039250610923565b6001836020036101000a038019825116818451168082178552505050505050905001915050600060405180830381855af49150503d80600081146109a8576040519150601f19603f3d011682016040523d82523d6000602084013e6109ad565b606091505b505090508015156109bd57600080fd5b505b5050565b60006109cd610b0a565b73ffffffffffffffffffffffffffffffffffffffff163373ffffffffffffffffffffffffffffffffffffffff161415610a0f57610a08610b0a565b9050610a18565b610a17610456565b5b90565b610a23610b0a565b73ffffffffffffffffffffffffffffffffffffffff163373ffffffffffffffffffffffffffffffffffffffff1614151515610aa9576040517f08c379a0000000000000000000000000000000000000000000000000000000008152600401808060200182810382526032815260200180610c5e6032913960400191505060405180910390fd5b610ab1610c48565b565b6000807f360894a13ba1a3210667c828492db98dca3e2076cc3735a920a3ca505d382bbc6001029050805491505090565b3660008037600080366000845af43d6000803e8060008114610b05573d6000f35b3d6000fd5b6000807fb53127684a568b3173ae13b9f8a6016e243e63b6e8ee1178d6a717850b5d61036001029050805491505090565b610b4481610bb9565b8073ffffffffffffffffffffffffffffffffffffffff167fbc7cd75a20ee27fd9adebab32041f755214dbc6bffa90cc0225b39da2e5c2d3b60405160405180910390a250565b60007fb53127684a568b3173ae13b9f8a6016e243e63b6e8ee1178d6a717850b5d610360010290508181555050565b610bc281610c4a565b1515610c19576040517f08c379a000000000000000000000000000000000000000000000000000000000815260040180806020018281038252603b815260200180610cc6603b913960400191505060405180910390fd5b60007f360894a13ba1a3210667c828492db98dca3e2076cc3735a920a3ca505d382bbc60010290508181555050565b565b600080823b90506000811191505091905056fe43616e6e6f742063616c6c2066616c6c6261636b2066756e6374696f6e2066726f6d207468652070726f78792061646d696e43616e6e6f74206368616e6765207468652061646d696e206f6620612070726f787920746f20746865207a65726f206164647265737343616e6e6f742073657420612070726f787920696d706c656d656e746174696f6e20746f2061206e6f6e2d636f6e74726163742061646472657373a165627a7a72305820e0f9f0a77ed9208d8df512952448f28d6285c575a30a5b572b6488e8c0fd51880029",
  "source": "//SPDX-License-Identifier:MIT\n\npragma solidity ^0.5.0;\n\nimport \"@openzeppelin/upgrades/contracts/upgradeability/ProxyFactory.sol\";\n\ncontract StoreFactory is ProxyFactory {\n\n    address public implementation;\n    address public owner;\n\n    constructor(address _implementation) public {\n        implementation = _implementation;\n        owner = msg.sender;\n    }\n\n    modifier onlyOwner(){\n        require(msg.sender == owner, \"Not owner\");\n        _;\n    }\n\n\nfunction cloneStore() public onlyOwner{\n    deployMinimal(implementation, \"\");\n}\n}\n\n\n/* \nMigrations: 0x47d5578156C45991370753d537c568C01129B81f\nStore: 0xd27924e92b13e8382aD45d9ecd7eF16C476b32B9\nStoreFactory:  (owner: 0x8f4129063C02c16F7DF365f57f51cC4D94EEE921), contract address (StoreFactory): 0x759612EecAfFAC0AE7AB968531cC0e9a2BACaa3c\nProxyCreated:\n0xD019d3AE2F34F15ced7477da6E54F203f4C633bD\n0x44343cF37Bb19B1605C6c8927B7b9eD924d5C04D\n0x4D431Aff98F07C5ad9dc3A14952912b89dF69F1d\n*/",
  "sourcePath": "/home/hp/RAJEEB/Rajeeb/Rajeeb_Github_Repo/Solidity 0.8/Applications/09MinimalProxyContract/Example2UsingTruffle/contracts/StoreFactory.sol",
  "compiler": {
    "name": "solc",
    "version": "0.5.3+commit.10d17f24.Emscripten.clang"
  },
  "schemaVersion": "3.4.6",
  "updatedAt": "2022-08-12T07:53:12.183Z",
  "networkType": "ethereum",
  "devdoc": {
    "methods": {}
  },
  "userdoc": {
    "methods": {}
  }
}